:100000000C945D000C9485000C9485000C94850084
:100010000C9485000C9485000C9485000C9485004C
:100020000C9485000C9485000C9485000C9485003C
:100030000C9485000C9485000C9485000C9485002C
:100040000C94E5070C9485000C94B3070C948D0771
:100050000C9485000C9485000C9485000C9485000C
:100060000C9485000C94850000000008000201003B
:100070000003040700000000000000000000000072
:10008000250028002B0000000000240027002A0083
:10009000040404040404040402020202020203032E
:1000A0000303030301020408102040800102040836
:1000B00010200102040810202F0811241FBECFEFCA
:1000C000D8E0DEBFCDBF12E0A0E0B1E0ECE8FCE19B
:1000D00002C005900D92A23EB107D9F727E0A2EE2B
:1000E000B2E001C01D92AC3AB207E1F710E0CDE5F5
:1000F000D0E004C02197FE010E943E0ECC35D1070E
:10010000C9F70E9479080C94440E0C94000090E00A
:10011000FC01EC55FF4F249180579F4FFC018491C7
:10012000882399F090E0880F991FFC01EA57FF4F50
:10013000A591B491FC01E458FF4F859194918FB73C
:10014000F894EC91E22BEC938FBF0895EF92FF921D
:100150000F931F93CF93DF93EC0197FD279633E026
:10016000D595C7953A95E1F768E070E00E94160EC4
:1001700002ED11E0AAECB1E050E040E070E060E098
:10018000F801219131918F012C0F3D1FED90FD90D1
:10019000E80EF91E28303105E8F4F8E0EF16F10416
:1001A000C8F4F90133E0EE0FFF1F3A95E1F7EE0DC9
:1001B000FF1DEE0FFF1FE65BFE4F2081318137FDF3
:1001C00009C0FA01EE0FFF1FE351F94F71836083FD
:1001D0004F5F5F4F6F5F7F4F6430710589F65093BB
:1001E000F6064093F506DF91CF911F910F91FF9096
:1001F000EF9008952F923F924F925F926F927F926D
:100200008F929F92AF92BF92CF92DF92EF92FF9226
:100210000F931F93CF93DF9300D000D0CDB7DEB7FD
:100220008090F5069090F60624E0880F991F2A9595
:10023000E1F79C0123513D4F79013DEEC32E36E09D
:10024000D32E10E000E0712C612C38EC398382EC65
:100250008A831C821B820815190524F5F601A190DA
:10026000B1906F01F501EE0FFF1FEE0FFF1FEE0DB6
:10027000FF1D3080418052802380272D362D4981FB
:100280005A81632D742D852D922D0E949F0D87FD1F
:1002900006C0732C642C59822A82BC82AB820F5F09
:1002A0001F4FD9CF2B813C81B901330F880B990B9C
:1002B0000E94EF0C0F900F900F900F90DF91CF9155
:1002C0001F910F91FF90EF90DF90CF90BF90AF9074
:1002D0009F908F907F906F905F904F903F902F9066
:1002E0000895AF92BF92CF92DF92EF92FF920F9359
:1002F0001F93CF93DF936C017B018B01040F151FBC
:10030000EB015E01AE18BF08C017D10759F0699123
:10031000D601ED91FC910190F081E02DC601099587
:10032000892B79F7C501DF91CF911F910F91FF9034
:10033000EF90DF90CF90BF90AF900895FC01538D68
:10034000448D252F30E0842F90E0821B930B5417AF
:1003500010F0CF96089501970895FC01918D828D3C
:10036000981761F0A28DAE0FBF2FB11D5D968C91D5
:10037000928D9F5F9F73928F90E008958FEF9FEF14
:100380000895FC01918D828D981731F0828DE80FD0
:10039000F11D858D90E008958FEF9FEF0895FC018A
:1003A000918D228D892F90E0805C9F4F821B910957
:1003B0008F739927089587EF96E00E94CF0121E07F
:1003C000892B09F420E0822F089580E090E0892BAA
:1003D00029F00E94DB0181110C9400000895FC01BA
:1003E000A48DA80FB92FB11DA35ABF4F2C91848D96
:1003F00090E001968F739927848FA689B7892C93F3
:10040000A089B1898C91837080648C93938D848D45
:10041000981306C00288F389E02D80818F7D808348
:100420000895EF92FF920F931F93CF93DF93EC0108
:1004300081E0888F9B8D8C8D98131AC0E889F9898B
:10044000808185FF15C09FB7F894EE89FF8960838E
:10045000E889F98980818370806480839FBF81E00F
:1004600090E0DF91CF911F910F91FF90EF90089551
:10047000F62E0B8D10E00F5F1F4F0F731127E02E2C
:100480008C8D8E110CC00FB607FCFACFE889F98964
:10049000808185FFF5CFCE010E94EF01F1CFEB8D7A
:1004A000EC0FFD2FF11DE35AFF4FF0829FB7F89438
:1004B0000B8FEA89FB8980818062CFCFCF93DF9356
:1004C000EC01888D8823B9F0AA89BB89E889F9896C
:1004D0008C9185FD03C0808186FD0DC00FB607FCA1
:1004E000F7CF8C9185FFF2CF808185FFEDCFCE01D4
:1004F0000E94EF01E9CFDF91CF91089590E0FC01D8
:10050000E859FF4F2491FC01EC55FF4F3491FC0159
:10051000E057FF4FE491EE23C9F0222339F0233056
:1005200001F1A8F4213019F1223029F1F0E0EE0FA9
:10053000FF1FE458FF4FA591B4918FB7F894EC9149
:10054000611126C030953E233C938FBF089527301C
:10055000A9F02830C9F0243049F7809180008F7DC0
:1005600003C0809180008F7780938000DFCF84B5B7
:100570008F7784BDDBCF84B58F7DFBCF8091B000BA
:100580008F778093B000D2CF8091B0008F7DF9CF6C
:100590003E2BDACF3FB7F8948091E7029091E802C2
:1005A000A091E902B091EA0226B5A89B05C02F3FB1
:1005B00019F00196A11DB11D3FBFBA2FA92F982F89
:1005C0008827BC01CD01620F711D811D911D42E084
:1005D000660F771F881F991F4A95D1F708958F924C
:1005E0009F92AF92BF92CF92DF92EF92FF924B0118
:1005F0005C010E94CA026B017C010E94CA026C1954
:100600007D098E099F09683E734081059105A8F315
:1006100021E0821A9108A108B10888EEC80E83E093
:10062000D81EE11CF11C81149104A104B10429F726
:10063000FF90EF90DF90CF90BF90AF909F908F9002
:100640000895089590E080E008952F923F924F9290
:100650005F926F927F928F929F92AF92BF92CF9252
:10066000DF92EF92FF920F931F93CF93DF93CDB75B
:10067000DEB728970FB6F894DEBF0FBECDBF6C0172
:100680005B0164E1862E912C7AE4272E71E0372EEF
:1006900044244A94512C865F9E4F9C838B83F501A2
:1006A000E65FFE4FFE83ED830EE211E082E191E012
:1006B0009A838983F80181918F01082E000C990B90
:1006C0008830910508F0AFC0865F9E4FFC01F08135
:1006D0008F2F90E098878F83E981FA818191FA8347
:1006E000E983082E000C990B8830910508F09EC014
:1006F000865F9E4FFC01808190E07201E81AF90A42
:1007000058E0652E712C6F817885617077278FE0B6
:100710000E947E02B7016170772781E10E947E020C
:1007200061E080E10E947E028F8198859595879592
:1007300098878F83F594E79460E080E10E947E02C1
:1007400091E0691A7108F9F661E08EE00E947E027C
:1007500060E08EE00E947E022016310609F0AACFEA
:1007600090E080E0E8E0CE16D10420F4EB81FC813B
:10077000808190E08201081B190BF8E0AF16B104EC
:1007800008F057C0ED81FE81F0818F2F90E09A83B1
:10079000898328E0E22EF12C69817A8161707727C4
:1007A0008FE00E947E02B8016170772781E10E948C
:1007B0007E0261E080E10E947E02E981FA81F59586
:1007C000E795FA83E9831595079560E080E10E943B
:1007D0007E02F1E0EF1AF108F9F661E08EE00E9486
:1007E0007E0260E08EE00E947E0221E0821A910883
:1007F00009F05ACF28960FB6F894DEBF0FBECDBFD2
:10080000DF91CF911F910F91FF90EF90DF90CF90EC
:10081000BF90AF909F908F907F906F905F904F9020
:100820003F902F90089518861F8256CF90E080E069
:1008300064CF1A821982ADCF2F923F924F925F926E
:100840006F927F928F929F92AF92BF92CF92DF92E0
:10085000EF92FF920F931F93CF93DF93CDB7DEB745
:1008600028970FB6F894DEBF0FBECDBF8C017E83F4
:100870006D83EDEEF6E088E0DF011D928A95E9F7E1
:10088000C8010E94A600C8010E94FA000E94B70C8D
:100890006B837C83380117FF03C0B7E06B0E711CBC
:1008A000B3E075946794BA95E1F7C80168E070E029
:1008B0000E94160E6C01E6E4F0E0FA83E9832D81D4
:1008C0003E812130310521F4B601C3010E94250388
:1008D0000E94600BBC01990F880B990B0E94EF0CD2
:1008E00020E03EEF4FEF56E40E94450C20910201BC
:1008F0003091030140910401509105010E949F0D28
:10090000EB80FC8018167CF00E94600B6091F5066D
:100910007091F6060E94160EFC01EE0FFF1FE351C8
:10092000F94FE080F180980117FF02C0295F3F4F27
:1009300073E0359527957A95E1F7C80168E070E096
:100940000E94160EA701440F551FFA01EE52FE4FEA
:1009500060817181620F731FF3E0660F771FFA9554
:10096000E1F746535E4FDA012D913C91820F931FC0
:10097000680F791F78876F833B0177FF03C0B7E06B
:100980006B0E711C63E0759467946A95E1F78F8133
:10099000988568E070E00E94160E6C01EDEEF6E0BE
:1009A00028E011922A95E9F78F8198850E94A60088
:1009B0008F8198850E94FA000E94B70C4B016B83CF
:1009C0009C8220E030E0A901609102017091030156
:1009D00080910401909105010E94400C882309F444
:1009E0005CC084E0000F111F8A95E1F7EE0CFF1C3C
:1009F000EE0CFF1C0E0D1F1D03511D4FD8012D9035
:100A00003D904D905C908F81988524E0880F991FD0
:100A10002A95E1F783519D4F880C991C880C991CED
:100A2000880E991E26E636E646E65FE3F40160810D
:100A30007181828193810E94A40D4B015C01F301BD
:100A400043E0EE0FFF1F4A95E1F7EC0DFD1DEE0FA1
:100A5000FF1FE65BFE4F60817181072E000C880B43
:100A6000990B0E94EF0C9B01AC01C501B4010E94DF
:100A7000D40BA20191010E94D30B26E636E646E68E
:100A80005FE30E94A40DA20191010E94D40BD80142
:100A90006D937D938D939C931397EF81F885E73049
:100AA000F10551F029813A81215031093A83298396
:100AB0008F01232B09F003CF8F81988528960FB6DD
:100AC000F894DEBF0FBECDBFDF91CF911F910F9184
:100AD000FF90EF90DF90CF90BF90AF909F908F905E
:100AE0007F906F905F904F903F902F900895CF939D
:100AF000DF93EC0160E08E810E947E0261E08E81D6
:100B00000E947E0260E08E810E947E028BE891E06E
:100B10000197F1F7DF91CF910895CF92DF92EF9295
:100B2000FF920F931F93CF93DF936C017C0187E0BB
:100B3000E80EF11CD0E0C0E0062F10E0B8010C2E4A
:100B400002C0759567950A94E2F76170F70181918B
:100B50007F010E947E022196C430D10579F7C6013B
:100B6000DF91CF911F910F91FF90EF90DF90CF9089
:100B70000C947705CF92DF92EF92FF920F931F9321
:100B8000CF93DF93EC01F62E642F8C810E947E02BE
:100B90008D818F3F19F060E00E947E020F2D10E0E2
:100BA0008F8584FF25C06E0187E0C80ED11CF12C13
:100BB000E12CB8010E2C02C0759567950A94E2F7F6
:100BC0006170F60181916F010E947E02FFEFEF1AC2
:100BD000FF0A88E0E816F10461F7CE01DF91CF91BA
:100BE0001F910F91FF90EF90DF90CF900C947705BD
:100BF000B80184E0759567958A95E1F7CE010E946A
:100C00008D056F2DCE01DF91CF911F910F91FF9038
:100C1000EF90DF90CF900C948D0540E0682F84E931
:100C200097E00C94BA05CF93DF93823029F490912A
:100C3000A30798609093A3078093A7071092A80733
:100C400080E48093A90780E18093AA0780E58093E0
:100C5000AB07809198070E948700809199078F3F8A
:100C600011F00E94870080919A070E948700C4E9D2
:100C7000D7E09E01245937408091A30784FD0AC024
:100C800084E090E02196281739073CF48E810E9479
:100C90008700EFCF88E090E0F5CF8BE39DE00197F0
:100CA000F1F760E0809198070E947E0260E08091F9
:100CB0009A070E947E02809199078F3F19F060E0A9
:100CC0000E947E028091A30784FD39C063E084E91D
:100CD00097E00E948D05CBE4D6E4CE010197F1F7B1
:100CE00063E084E997E00E948D052197F1F763E0C6
:100CF00084E997E00E948D0583E592E00197F1F782
:100D000062E084E997E00E948D058091A3078062EC
:100D10000E940D0684E08093A4078CE00E940D06DB
:100D200081E00E940D068BE39FE10197F1F782E0DD
:100D30008093A50786E0DF91CF910C940D06806229
:100D40000E940D068BE496E40197F1F78091A307CA
:100D500080620E940D0683E592E00197F1F7809191
:100D6000A30780620E940D06D0CF9091A707891734
:100D700010F08FEF890FE82FF0E0EC56F84F8489E0
:100D800080680C940D0641E00E94BA0581E090E075
:100D90000895EF92FF920F931F93CF93DF9380916B
:100DA000000190910101019690930101809300014F
:100DB0000E94650BC0E4D0E008E010E00E94600BE8
:100DC000BE010E94160E7C01FC0197FD3796C701FB
:100DD000B8010E94160EE87FE80FF91FEE0FFF1F03
:100DE000E65BFE4F8081918197FDE8CF87E0E816B2
:100DF000F10421F3C701DF91CF911F910F91FF9073
:100E0000EF900895FB0101900020E9F73197AF01C1
:100E1000461B570BDC01ED91FC910280F381E02D24
:100E200009948F929F92AF92BF920F931F93CF938B
:100E3000DF93CDB7DEB7A1970FB6F894DEBF0FBE34
:100E4000CDBF19A2423008F44AE08E010F5D1F4F5A
:100E5000842E912CB12CA12CA50194010E94A20BEF
:100E6000E62FB901CA01EA3004F5E05DD801EE933E
:100E70008D01232B242B252B79F790E080E0109710
:100E800029F0BD0187EF96E00E940207A1960FB6F8
:100E9000F894DEBF0FBECDBFDF91CF911F910F91B0
:100EA000BF90AF909F908F900895E95CDFCFCF9275
:100EB000DF92EF92FF92CF93DF936B017C016DE2A3
:100EC00087EF96E00E941102EC0166277727CB019D
:100ED0006C197D098E099F094AE00E9411078C0F49
:100EE0009D1FDF91CF91FF90EF90DF90CF900895FD
:100EF000CF93DF93BC0187EF96E00E940207EC01DD
:100F000068EF71E087EF96E00E9402078C0F9D1F4B
:100F1000DF91CF9108950C9402071F920F920FB6A4
:100F20000F9211242F933F934F935F936F937F936F
:100F30008F939F93AF93BF93EF93FF9387EF96E0C9
:100F40000E94EF01FF91EF91BF91AF919F918F911F
:100F50007F916F915F914F913F912F910F900FBEB5
:100F60000F901F9018951F920F920FB60F92112499
:100F70002F938F939F93EF93FF93E0910707F09147
:100F800008078081E0910D07F0910E0782FD1BC0DC
:100F90009081809110078F5F8F73209111078217C6
:100FA00041F0E0911007F0E0E950F94F958F809300
:100FB0001007FF91EF919F918F912F910F900FBE8E
:100FC0000F901F9018958081F4CF1F920F920FB64B
:100FD0000F9211242F933F938F939F93AF93BF93BF
:100FE0008091E3029091E402A091E502B091E602C3
:100FF0003091E20223E0230F2D3758F50196A11D11
:10100000B11D2093E2028093E3029093E402A09347
:10101000E502B093E6028091E7029091E802A09188
:10102000E902B091EA020196A11DB11D8093E70289
:101030009093E802A093E902B093EA02BF91AF91C6
:101040009F918F913F912F910F900FBE0F901F9006
:10105000189526E8230F0296A11DB11DD2CFE7EF08
:10106000F6E01382128288EE93E0A0E0B0E0848381
:101070009583A683B7838EED91E09183808385EC81
:1010800090E09587848784EC90E09787868780EC52
:1010900090E0918B808B81EC90E0938B828B82EC43
:1010A00090E0958B848B86EC90E0978B868B118EED
:1010B000128E138E148EE4E9F7E01382128280EF11
:1010C00091E0918380838DE084838FEF85838CE032
:1010D00086838BE087838AE0808789E0818788E048
:1010E00082871386148615861686178681E00C94EF
:1010F0001306789484B5826084BD84B5816084BD14
:1011000085B5826085BD85B5816085BD80916E00A5
:10111000816080936E0010928100809181008260D6
:101120008093810080918100816080938100809113
:1011300080008160809380008091B1008460809302
:10114000B1008091B00081608093B00080917A00FE
:10115000846080937A0080917A00826080937A0024
:1011600080917A00816080937A0080917A00806813
:1011700080937A001092C10082E00E9413068FE0F3
:101180000E94870080E10E9487008EE00E94870015
:1011900081E10E94870080E00E94B5066BEF71E05C
:1011A00084E997E00E948B0781E00E94B5066BE01E
:1011B00072E084E997E00E948B0768EE73E080E0BC
:1011C00090E00E94EF0280E00E94B5066FE172E0BD
:1011D00084E997E00E948B0781E00E94B5066DE2EA
:1011E00072E084E997E00E948B07E0910707F09195
:1011F000080782E08083E0910307F09104071082E2
:10120000E0910507F09106078FEC808310920F079D
:10121000E0910B07F0910C0786E08083E0910907CD
:10122000F0910A07808180618083E0910907F09145
:101230000A07808188608083E0910907F0910A079E
:10124000808180688083E0910907F0910A0780819E
:101250008F7D80838DE392E00E947807C12CD12C92
:101260007601C4E6D0E001E010E0412C512CB0E85A
:101270006B2EBFE37B2E5601CE010E94650B0E94B0
:10128000C90601301105B9F46DE472E087EF96E00C
:101290000E948B074AE0C701B6010E94110768EF60
:1012A00071E087EF96E00E94020764EF71E080E052
:1012B00090E00E94EF0283E0A822BB24E3E0AE1698
:1012C000B10409F022C110920201109203011092A0
:1012D00004011092050160E672E087EF96E00E943B
:1012E0008B074AE0C701B6010E94110768EF71E061
:1012F00087EF96E00E94020761E070E088E390E0EB
:101300000E941C04079799F010E000E0A8E3AA2EC1
:10131000B12CB801C5010E941C042196FFEFCF1A21
:10132000DF0AEF0AFF0AC83CD10509F0A4CF8CE719
:1013300092E00E947807CDEED2E0FDEEAF2EF6E00F
:10134000BF2E8E01005F1F4FC990D990E990F99090
:10135000A7019601C701B6010E94110E6EE872E066
:1013600081111BC026013701E89477F82FEF3FEF7A
:101370004FE75FE7C301B2010E94110E8111D4C093
:101380002FEF3FEF4FE75FE7C301B2010E94400C30
:1013900018160CF0C9C062E972E087EF96E00E946F
:1013A000020769E072E087EF96E00E948B070C1756
:1013B0001D0751F68AE992E00E947807A016B1064F
:1013C00009F0BFCF80E00E94B5066FE172E084E9CA
:1013D00097E00E948B0781E00E94B5066CE972E0FD
:1013E00084E997E00E948B0788EA92E00E947807E0
:1013F00088E390E09093EC028093EB0264EB72E060
:1014000087EF96E00E948B0748E0842E912C5DEEDA
:10141000A52E56E0B52E68E0362E70E0E72E70E07F
:10142000F72EE8E3CE2ED12C6090EB027090EC0208
:10143000C301B4010E94160E8C01E30177FC2796CC
:1014400083E0D595C7958A95E1F7B801CE010E9452
:101450002503F501832D11928A95E9F7C3010E94B6
:10146000A600C3010E94FA000E94B70C2B01CB0119
:10147000880F991FFC01EE52FE4F20813181C20F6F
:10148000D31F33E0CC0FDD1F3A95E1F786539E4F13
:10149000FC0180819181080F191F0C0F1D1F67EC43
:1014A00072E087EF96E00E948B07B201550C880B23
:1014B000990B97FFB0C00E94570769E772E087EF6A
:1014C00096E00E948B0788ED92E00E94780764E620
:1014D00070E080E090E00E94EF020730110509F013
:1014E0009EC08BED92E00E947807D092EC02C092F1
:1014F000EB02E114F10409F497CF0E94DB01882389
:1015000009F492CF0E9400008FCF409202015092C6
:10151000030160920401709205010E94C9065C01FA
:10152000B8010E941C04F5CE2FEF3FEF4FE75FE4B8
:10153000C701B6010E949F0D18161CF466E972E0FF
:101540002CCF2FEF3FEF4FE75FECC701B6010E94B2
:10155000400C87FDF3CF20E030E0A901C701B601C0
:101560000E94400C87FF09C06DE287EF96E00E9461
:101570001102F7FAF094F7F8F0942AE037ED43EA15
:101580005BE3C701B6010E94D40B2B013C010E9412
:10159000BE0C6B017C010E94ED0C9B01AC01C301F0
:1015A000B2010E94D30B2B013C014AE0C701B601F6
:1015B0000E9411076EE287EF96E00E94110220E080
:1015C00030E040E251E4C301B2010E94A40D2B01BE
:1015D0003C010E94BE0C6B01F12CE12C4AE0C701DA
:1015E000B6010E941107C701B6010E94ED0C9B01D4
:1015F000AC01C301B2010E94D30B20E030E040E215
:1016000051E40E94A40D0E94BE0C90E080E04AE0EC
:101610000E941107C6CE4AE00E9411074ECF1093D8
:10162000EC020093EB0265CF8F929F92AF92BF9234
:10163000CF92DF92EF92FF92CF93DF93EC0168811C
:1016400079818A819B81611571058105910521F45C
:1016500064E279ED8BE597E02DE133EF41E050E076
:101660000E94700B49015A019B01AC01A7EAB1E449
:101670000E948F0B6B017C01ACEEB4EFA5019401CD
:101680000E949D0BDC01CB018C0D9D1DAE1DBF1D6D
:10169000B7FF03C00197A109B04888839983AA8343
:1016A000BB839F77DF91CF91FF90EF90DF90CF903A
:1016B000BF90AF909F908F9008950E94140B089553
:1016C00086E091E00E94140B0895B0E0A0E08093C2
:1016D000060190930701A0930801B09309010895B2
:1016E000052E97FB1EF400940E94870B57FD07D030
:1016F0000E94A20B07FC03D04EF40C94870B50956C
:101700004095309521953F4F4F4F5F4F08959095ED
:101710008095709561957F4F8F4F9F4F08950E94E0
:10172000C40BA59F900DB49F900DA49F800D911D9B
:1017300011240895B7FF0C948F0B0E948F0B821B0E
:10174000930B0895A1E21A2EAA1BBB1BFD010DC02D
:10175000AA1FBB1FEE1FFF1FA217B307E407F50761
:1017600020F0A21BB30BE40BF50B661F771F881F3D
:10177000991F1A9469F760957095809590959B01D3
:10178000AC01BD01CF010895A29FB001B39FC0017C
:10179000A39F700D811D1124911DB29F700D811D9D
:1017A0001124911D08955058BB27AA270E94EB0BC6
:1017B0000C94650D0E94570D38F00E945E0D20F0CC
:1017C00039F49F3F19F426F40C94540D0EF4E0956F
:1017D000E7FB0C944E0DE92F0E94760D58F3BA17D3
:1017E000620773078407950720F079F4A6F50C9437
:1017F000980D0EF4E0950B2EBA2FA02D0B01B90118
:1018000090010C01CA01A0011124FF27591B99F076
:10181000593F50F4503E68F11A16F040A22F232F82
:10182000342F4427585FF3CF469537952795A795D2
:10183000F0405395C9F77EF41F16BA0B620B730B79
:10184000840BBAF09150A1F0FF0FBB1F661F771FEA
:10185000881FC2F70EC0BA0F621F731F841F48F49F
:10186000879577956795B795F7959E3F08F0B0CF28
:101870009395880F08F09927EE0F9795879508950F
:101880000E942A0D08F481E008950E94590C0C94DE
:10189000650D0E945E0D58F00E94570D40F029F42E
:1018A0005F3F29F00C944E0D51110C94990D0C943E
:1018B000540D0E94760D68F39923B1F3552391F3EB
:1018C000951B550BBB27AA2762177307840738F0AF
:1018D0009F5F5F4F220F331F441FAA1FA9F335D00C
:1018E0000E2E3AF0E0E832D091505040E695001CC0
:1018F000CAF72BD0FE2F29D0660F771F881FBB1F7A
:10190000261737074807AB07B0E809F0BB0B802D57
:10191000BF01FF2793585F4F3AF09E3F510578F083
:101920000C944E0D0C94990D5F3FE4F3983ED4F364
:10193000869577956795B795F7959F5FC9F7880F57
:10194000911D9695879597F90895E1E0660F771FA9
:10195000881FBB1F621773078407BA0720F0621B3A
:10196000730B840BBA0BEE1F88F7E09508950E9465
:10197000BE0C6894B1110C94990D08950E947E0DCF
:1019800088F09F5798F0B92F9927B751B0F0E1F040
:10199000660F771F881F991F1AF0BA95C9F714C0F0
:1019A000B13091F00E94980DB1E008950C94980D1B
:1019B000672F782F8827B85F39F0B93FCCF3869529
:1019C00077956795B395D9F73EF490958095709586
:1019D00061957F4F8F4F9F4F0895E89409C097FB03
:1019E0003EF490958095709561957F4F8F4F9F4FF6
:1019F0009923A9F0F92F96E9BB279395F69587953A
:101A000077956795B795F111F8CFFAF4BB0F11F4FC
:101A100060FF1BC06F5F7F4F8F4F9F4F16C08823A3
:101A200011F096E911C0772321F09EE8872F762FD9
:101A300005C0662371F096E8862F70E060E02AF01A
:101A40009A95660F771F881FDAF7880F9695879506
:101A500097F90895990F0008550FAA0BE0E8FEEFDB
:101A600016161706E807F907C0F012161306E40762
:101A7000F50798F0621B730B840B950B39F40A265B
:101A800061F0232B242B252B21F408950A2609F439
:101A9000A140A6958FEF811D811D089597F99F673D
:101AA00080E870E060E008959FEF80EC08950024E6
:101AB0000A941616170618060906089500240A94B3
:101AC00012161306140605060895092E0394000C39
:101AD00011F4882352F0BB0F40F4BF2B11F460FFC8
:101AE00004C06F5F7F4F8F4F9F4F089557FD9058F1
:101AF000440F551F59F05F3F71F04795880F97FBD2
:101B0000991F61F09F3F79F087950895121613068B
:101B10001406551FF2CF4695F1DF08C016161706BA
:101B20001806991FF1CF86957105610508940895EF
:101B3000E894BB2766277727CB0197F908950E9481
:101B40002A0D08F48FEF08950E94B70D0C94650DCF
:101B50000E94570D38F00E945E0D20F0952311F081
:101B60000C944E0D0C94540D11240C94990D0E945C
:101B7000760D70F3959FC1F3950F50E0551F629F4E
:101B8000F001729FBB27F00DB11D639FAA27F00DD6
:101B9000B11DAA1F649F6627B00DA11D661F829FFD
:101BA0002227B00DA11D621F739FB00DA11D621FE2
:101BB000839FA00D611D221F749F3327A00D611DFF
:101BC000231F849F600D211D822F762F6A2F1124E1
:101BD0009F5750409AF0F1F088234AF0EE0FFF1F14
:101BE000BB1F661F771F881F91505040A9F79E3F6B
:101BF000510580F00C944E0D0C94990D5F3FE4F369
:101C0000983ED4F3869577956795B795F795E795C0
:101C10009F5FC1F7FE2B880F911D9695879597F9C9
:101C200008950E942A0D880B990B089597FB072EA3
:101C300016F4009407D077FD09D00E942A0E07FC05
:101C400005D03EF4909581959F4F089570956195CC
:101C50007F4F0895AA1BBB1B51E107C0AA1FBB1FE2
:101C6000A617B70710F0A61BB70B881F991F5A9528
:101C7000A9F780959095BC01CD010895EE0FFF1F47
:0C1C80000590F491E02D0994F894FFCF3A
:101C8C0001000000803F0100000001020408102048
:101C9C004080030103040501070304050705070041
:101CAC0001020304050707010203040506070001EE
:101CBC0001010102020303030304040505050505E4
:101CCC0005050607070707070707010001000100C4
:101CDC0001000100FFFF010064000100FFFFFFFF96
:101CEC0001000100FFFF0100FFFF010001000100E6
:101CFC0001000100FFFF0100FFFFFFFFFFFF0100DC
:101D0C00FFFF0100FFFF0100FFFF0100FFFF0100CB
:101D1C00FFFF0100FFFF0100FFFF0100FFFF0100BB
:101D2C00FFFFFFFFFFFF0100FFFF010001000100AB
:101D3C000100010001000100FFFF01000100FFFF95
:101D4C00FFFFFFFFFFFFFFFFFFFF00000000010090
:101D5C00FFFF0100FFFF0000000000000000110267
:101D6C0071019E015E02CF01AD01C10100000000B6
:101D7C00C3067101220321030D0A0020204D617A54
:101D8C00652047616D65202020200057656C636FCE
:101D9C006D65206563655F736F6369657479002099
:101DAC006563655F736F63696574792000204D61AD
:101DBC007A6520547261696E696E67200054726195
:101DCC00696E696E672050686173653A0045706989
:101DDC00736F6465206974657261746F723A200068
:101DEC005465737420457069736F64652028457859
:101DFC00706C6F726174696F6E292000757064610C
:101E0C007465642051206D61747269783A006E615A
:101E1C006E00696E66006F7666003B00204D617A3D
:101E2C006520546573742000546573742050686188
:101E3C0073653A00496E697469616C2073746174DE
:101E4C00652069733A20002028616374696F6E20E5
:101E5C0074616B656E3A20002D3E002D3E206F752F
:021E6C00740000
:00000001FF
